{
  "contractName": "SSI",
  "abi": [
    {
      "inputs": [],
      "name": "docCount",
      "outputs": [
        {
          "internalType": "uint256",
          "name": "",
          "type": "uint256"
        }
      ],
      "stateMutability": "view",
      "type": "function",
      "constant": true
    },
    {
      "inputs": [
        {
          "internalType": "uint256",
          "name": "",
          "type": "uint256"
        }
      ],
      "name": "documents",
      "outputs": [
        {
          "internalType": "uint256",
          "name": "id",
          "type": "uint256"
        },
        {
          "internalType": "string",
          "name": "user_did",
          "type": "string"
        },
        {
          "internalType": "string",
          "name": "name",
          "type": "string"
        },
        {
          "internalType": "string",
          "name": "dob",
          "type": "string"
        },
        {
          "internalType": "string",
          "name": "email",
          "type": "string"
        },
        {
          "internalType": "string",
          "name": "phone",
          "type": "string"
        },
        {
          "internalType": "string",
          "name": "permanentAddress",
          "type": "string"
        },
        {
          "internalType": "bool",
          "name": "status",
          "type": "bool"
        }
      ],
      "stateMutability": "view",
      "type": "function",
      "constant": true
    },
    {
      "inputs": [
        {
          "internalType": "string",
          "name": "user_did",
          "type": "string"
        },
        {
          "internalType": "string",
          "name": "name",
          "type": "string"
        },
        {
          "internalType": "string",
          "name": "dob",
          "type": "string"
        },
        {
          "internalType": "string",
          "name": "email",
          "type": "string"
        },
        {
          "internalType": "string",
          "name": "phone",
          "type": "string"
        },
        {
          "internalType": "string",
          "name": "permanentAddress",
          "type": "string"
        }
      ],
      "name": "addDocument",
      "outputs": [],
      "stateMutability": "nonpayable",
      "type": "function"
    },
    {
      "inputs": [],
      "name": "getDocCount",
      "outputs": [
        {
          "internalType": "uint256",
          "name": "",
          "type": "uint256"
        }
      ],
      "stateMutability": "view",
      "type": "function",
      "constant": true
    },
    {
      "inputs": [
        {
          "internalType": "uint256",
          "name": "id",
          "type": "uint256"
        }
      ],
      "name": "getDocument",
      "outputs": [
        {
          "internalType": "string",
          "name": "user_did",
          "type": "string"
        },
        {
          "internalType": "string",
          "name": "name",
          "type": "string"
        },
        {
          "internalType": "string",
          "name": "dob",
          "type": "string"
        },
        {
          "internalType": "string",
          "name": "email",
          "type": "string"
        },
        {
          "internalType": "string",
          "name": "phone",
          "type": "string"
        },
        {
          "internalType": "string",
          "name": "permanentAddress",
          "type": "string"
        },
        {
          "internalType": "bool",
          "name": "status",
          "type": "bool"
        }
      ],
      "stateMutability": "view",
      "type": "function",
      "constant": true
    },
    {
      "inputs": [
        {
          "internalType": "uint256",
          "name": "id",
          "type": "uint256"
        },
        {
          "internalType": "string",
          "name": "user_did",
          "type": "string"
        },
        {
          "internalType": "string",
          "name": "name",
          "type": "string"
        },
        {
          "internalType": "string",
          "name": "dob",
          "type": "string"
        },
        {
          "internalType": "string",
          "name": "email",
          "type": "string"
        },
        {
          "internalType": "string",
          "name": "phone",
          "type": "string"
        },
        {
          "internalType": "string",
          "name": "permanentAddress",
          "type": "string"
        }
      ],
      "name": "verifyDocument",
      "outputs": [],
      "stateMutability": "nonpayable",
      "type": "function"
    },
    {
      "inputs": [],
      "name": "totalDocuments",
      "outputs": [
        {
          "internalType": "uint256",
          "name": "",
          "type": "uint256"
        }
      ],
      "stateMutability": "view",
      "type": "function",
      "constant": true
    },
    {
      "inputs": [
        {
          "internalType": "string",
          "name": "user_did",
          "type": "string"
        }
      ],
      "name": "showAllDocs",
      "outputs": [
        {
          "internalType": "uint256[]",
          "name": "",
          "type": "uint256[]"
        }
      ],
      "stateMutability": "view",
      "type": "function",
      "constant": true
    }
  ],
  "bytecode": "0x60806040526000805534801561001457600080fd5b50611832806100246000396000f3fe608060405234801561001057600080fd5b50600436106100885760003560e01c8063738317cb1161005b578063738317cb1461011d578063b885a52114610139578063c147488814610155578063c2ed2b051461018557610088565b80633f9b250a1461008d5780634c4dc6e0146100c3578063553181ec146100e157806363704e93146100ff575b600080fd5b6100a760048036038101906100a29190610e61565b6101bc565b6040516100ba9796959493929190610f42565b60405180910390f35b6100cb6105b7565b6040516100d89190610fea565b60405180910390f35b6100e96105bd565b6040516100f69190610fea565b60405180910390f35b6101076105c6565b6040516101149190610fea565b60405180910390f35b6101376004803603810190610132919061113a565b6105cf565b005b610153600480360381019061014e919061126f565b61071c565b005b61016f600480360381019061016a91906113b9565b610834565b60405161017c91906114c0565b60405180910390f35b61019f600480360381019061019a9190610e61565b6109ef565b6040516101b39897969594939291906114e2565b60405180910390f35b606080606080606080600080600160008a81526020019081526020016000206040518061010001604052908160008201548152602001600182018054610201906115b9565b80601f016020809104026020016040519081016040528092919081815260200182805461022d906115b9565b801561027a5780601f1061024f5761010080835404028352916020019161027a565b820191906000526020600020905b81548152906001019060200180831161025d57829003601f168201915b50505050508152602001600282018054610293906115b9565b80601f01602080910402602001604051908101604052809291908181526020018280546102bf906115b9565b801561030c5780601f106102e15761010080835404028352916020019161030c565b820191906000526020600020905b8154815290600101906020018083116102ef57829003601f168201915b50505050508152602001600382018054610325906115b9565b80601f0160208091040260200160405190810160405280929190818152602001828054610351906115b9565b801561039e5780601f106103735761010080835404028352916020019161039e565b820191906000526020600020905b81548152906001019060200180831161038157829003601f168201915b505050505081526020016004820180546103b7906115b9565b80601f01602080910402602001604051908101604052809291908181526020018280546103e3906115b9565b80156104305780601f1061040557610100808354040283529160200191610430565b820191906000526020600020905b81548152906001019060200180831161041357829003601f168201915b50505050508152602001600582018054610449906115b9565b80601f0160208091040260200160405190810160405280929190818152602001828054610475906115b9565b80156104c25780601f10610497576101008083540402835291602001916104c2565b820191906000526020600020905b8154815290600101906020018083116104a557829003601f168201915b505050505081526020016006820180546104db906115b9565b80601f0160208091040260200160405190810160405280929190818152602001828054610507906115b9565b80156105545780601f1061052957610100808354040283529160200191610554565b820191906000526020600020905b81548152906001019060200180831161053757829003601f168201915b505050505081526020016007820160009054906101000a900460ff161515151581525050905080602001518160400151826060015183608001518460a001518560c001518660e00151975097509750975097509750975050919395979092949650565b60005481565b60008054905090565b60008054905090565b6040518061010001604052806000548152602001878152602001868152602001858152602001848152602001838152602001828152602001600015158152506001600080548152602001908152602001600020600082015181600001556020820151816001019080519060200190610648929190610d74565b506040820151816002019080519060200190610665929190610d74565b506060820151816003019080519060200190610682929190610d74565b50608082015181600401908051906020019061069f929190610d74565b5060a08201518160050190805190602001906106bc929190610d74565b5060c08201518160060190805190602001906106d9929190610d74565b5060e08201518160070160006101000a81548160ff02191690831515021790555090505060008081548092919061070f9061161a565b9190505550505050505050565b6000548710610760576040517f08c379a0000000000000000000000000000000000000000000000000000000008152600401610757906116af565b60405180910390fd5b60006001600089815260200190815260200160002090508681600101908051906020019061078f929190610d74565b50858160020190805190602001906107a8929190610d74565b50848160030190805190602001906107c1929190610d74565b50838160040190805190602001906107da929190610d74565b50828160050190805190602001906107f3929190610d74565b508181600601908051906020019061080c929190610d74565b5060018160070160006101000a81548160ff0219169083151502179055505050505050505050565b60606000805467ffffffffffffffff8111156108535761085261100f565b5b6040519080825280602002602001820160405280156108815781602001602082028036833780820191505090505b5090506000805b60005481101561093d57846040516020016108a3919061170b565b60405160208183030381529060405280519060200120600160008381526020019081526020016000206001016040516020016108df91906117b6565b60405160208183030381529060405280519060200120141561092a578083838151811061090f5761090e6117cd565b5b60200260200101818152505081806109269061161a565b9250505b80806109359061161a565b915050610888565b5060008167ffffffffffffffff81111561095a5761095961100f565b5b6040519080825280602002602001820160405280156109885781602001602082028036833780820191505090505b50905060005b828110156109e3578381815181106109a9576109a86117cd565b5b60200260200101518282815181106109c4576109c36117cd565b5b60200260200101818152505080806109db9061161a565b91505061098e565b50809350505050919050565b6001602052806000526040600020600091509050806000015490806001018054610a18906115b9565b80601f0160208091040260200160405190810160405280929190818152602001828054610a44906115b9565b8015610a915780601f10610a6657610100808354040283529160200191610a91565b820191906000526020600020905b815481529060010190602001808311610a7457829003601f168201915b505050505090806002018054610aa6906115b9565b80601f0160208091040260200160405190810160405280929190818152602001828054610ad2906115b9565b8015610b1f5780601f10610af457610100808354040283529160200191610b1f565b820191906000526020600020905b815481529060010190602001808311610b0257829003601f168201915b505050505090806003018054610b34906115b9565b80601f0160208091040260200160405190810160405280929190818152602001828054610b60906115b9565b8015610bad5780601f10610b8257610100808354040283529160200191610bad565b820191906000526020600020905b815481529060010190602001808311610b9057829003601f168201915b505050505090806004018054610bc2906115b9565b80601f0160208091040260200160405190810160405280929190818152602001828054610bee906115b9565b8015610c3b5780601f10610c1057610100808354040283529160200191610c3b565b820191906000526020600020905b815481529060010190602001808311610c1e57829003601f168201915b505050505090806005018054610c50906115b9565b80601f0160208091040260200160405190810160405280929190818152602001828054610c7c906115b9565b8015610cc95780601f10610c9e57610100808354040283529160200191610cc9565b820191906000526020600020905b815481529060010190602001808311610cac57829003601f168201915b505050505090806006018054610cde906115b9565b80601f0160208091040260200160405190810160405280929190818152602001828054610d0a906115b9565b8015610d575780601f10610d2c57610100808354040283529160200191610d57565b820191906000526020600020905b815481529060010190602001808311610d3a57829003601f168201915b5050505050908060070160009054906101000a900460ff16905088565b828054610d80906115b9565b90600052602060002090601f016020900481019282610da25760008555610de9565b82601f10610dbb57805160ff1916838001178555610de9565b82800160010185558215610de9579182015b82811115610de8578251825591602001919060010190610dcd565b5b509050610df69190610dfa565b5090565b5b80821115610e13576000816000905550600101610dfb565b5090565b6000604051905090565b600080fd5b600080fd5b6000819050919050565b610e3e81610e2b565b8114610e4957600080fd5b50565b600081359050610e5b81610e35565b92915050565b600060208284031215610e7757610e76610e21565b5b6000610e8584828501610e4c565b91505092915050565b600081519050919050565b600082825260208201905092915050565b60005b83811015610ec8578082015181840152602081019050610ead565b83811115610ed7576000848401525b50505050565b6000601f19601f8301169050919050565b6000610ef982610e8e565b610f038185610e99565b9350610f13818560208601610eaa565b610f1c81610edd565b840191505092915050565b60008115159050919050565b610f3c81610f27565b82525050565b600060e0820190508181036000830152610f5c818a610eee565b90508181036020830152610f708189610eee565b90508181036040830152610f848188610eee565b90508181036060830152610f988187610eee565b90508181036080830152610fac8186610eee565b905081810360a0830152610fc08185610eee565b9050610fcf60c0830184610f33565b98975050505050505050565b610fe481610e2b565b82525050565b6000602082019050610fff6000830184610fdb565b92915050565b600080fd5b600080fd5b7f4e487b7100000000000000000000000000000000000000000000000000000000600052604160045260246000fd5b61104782610edd565b810181811067ffffffffffffffff821117156110665761106561100f565b5b80604052505050565b6000611079610e17565b9050611085828261103e565b919050565b600067ffffffffffffffff8211156110a5576110a461100f565b5b6110ae82610edd565b9050602081019050919050565b82818337600083830152505050565b60006110dd6110d88461108a565b61106f565b9050828152602081018484840111156110f9576110f861100a565b5b6111048482856110bb565b509392505050565b600082601f83011261112157611120611005565b5b81356111318482602086016110ca565b91505092915050565b60008060008060008060c0878903121561115757611156610e21565b5b600087013567ffffffffffffffff81111561117557611174610e26565b5b61118189828a0161110c565b965050602087013567ffffffffffffffff8111156111a2576111a1610e26565b5b6111ae89828a0161110c565b955050604087013567ffffffffffffffff8111156111cf576111ce610e26565b5b6111db89828a0161110c565b945050606087013567ffffffffffffffff8111156111fc576111fb610e26565b5b61120889828a0161110c565b935050608087013567ffffffffffffffff81111561122957611228610e26565b5b61123589828a0161110c565b92505060a087013567ffffffffffffffff81111561125657611255610e26565b5b61126289828a0161110c565b9150509295509295509295565b600080600080600080600060e0888a03121561128e5761128d610e21565b5b600061129c8a828b01610e4c565b975050602088013567ffffffffffffffff8111156112bd576112bc610e26565b5b6112c98a828b0161110c565b965050604088013567ffffffffffffffff8111156112ea576112e9610e26565b5b6112f68a828b0161110c565b955050606088013567ffffffffffffffff81111561131757611316610e26565b5b6113238a828b0161110c565b945050608088013567ffffffffffffffff81111561134457611343610e26565b5b6113508a828b0161110c565b93505060a088013567ffffffffffffffff81111561137157611370610e26565b5b61137d8a828b0161110c565b92505060c088013567ffffffffffffffff81111561139e5761139d610e26565b5b6113aa8a828b0161110c565b91505092959891949750929550565b6000602082840312156113cf576113ce610e21565b5b600082013567ffffffffffffffff8111156113ed576113ec610e26565b5b6113f98482850161110c565b91505092915050565b600081519050919050565b600082825260208201905092915050565b6000819050602082019050919050565b61143781610e2b565b82525050565b6000611449838361142e565b60208301905092915050565b6000602082019050919050565b600061146d82611402565b611477818561140d565b93506114828361141e565b8060005b838110156114b357815161149a888261143d565b97506114a583611455565b925050600181019050611486565b5085935050505092915050565b600060208201905081810360008301526114da8184611462565b905092915050565b6000610100820190506114f8600083018b610fdb565b818103602083015261150a818a610eee565b9050818103604083015261151e8189610eee565b905081810360608301526115328188610eee565b905081810360808301526115468187610eee565b905081810360a083015261155a8186610eee565b905081810360c083015261156e8185610eee565b905061157d60e0830184610f33565b9998505050505050505050565b7f4e487b7100000000000000000000000000000000000000000000000000000000600052602260045260246000fd5b600060028204905060018216806115d157607f821691505b602082108114156115e5576115e461158a565b5b50919050565b7f4e487b7100000000000000000000000000000000000000000000000000000000600052601160045260246000fd5b600061162582610e2b565b91507fffffffffffffffffffffffffffffffffffffffffffffffffffffffffffffffff821415611658576116576115eb565b5b600182019050919050565b7f496e76616c696420646f63756d656e7420494400000000000000000000000000600082015250565b6000611699601383610e99565b91506116a482611663565b602082019050919050565b600060208201905081810360008301526116c88161168c565b9050919050565b600081905092915050565b60006116e582610e8e565b6116ef81856116cf565b93506116ff818560208601610eaa565b80840191505092915050565b600061171782846116da565b915081905092915050565b60008190508160005260206000209050919050565b60008154611744816115b9565b61174e81866116cf565b94506001821660008114611769576001811461177a576117ad565b60ff198316865281860193506117ad565b61178385611722565b60005b838110156117a557815481890152600182019150602081019050611786565b838801955050505b50505092915050565b60006117c28284611737565b915081905092915050565b7f4e487b7100000000000000000000000000000000000000000000000000000000600052603260045260246000fdfea26469706673582212200cf2cc8ab3416a62d881e99d0299fe896290dcc52a72a8565d3e404ad21aa21e64736f6c634300080b0033",
  "immutableReferences": {},
  "source": "// SPDX-License-Identifier: MIT\r\npragma solidity ^0.8.0;\r\n\r\ncontract SSI {\r\n    uint256 public docCount = 0;\r\n\r\n    struct Document {\r\n        uint256 id;\r\n        string user_did;\r\n        string name;\r\n        string dob;\r\n        string email;\r\n        string phone;\r\n        string permanentAddress;\r\n        bool status;\r\n    }\r\n\r\n    mapping(uint256 => Document) public documents;\r\n\r\n    function addDocument(\r\n        string memory user_did,\r\n        string memory name,\r\n        string memory dob,\r\n        string memory email,\r\n        string memory phone,\r\n        string memory permanentAddress\r\n    ) public {\r\n        documents[docCount] = Document(\r\n            docCount,\r\n            user_did,\r\n            name,\r\n            dob,\r\n            email,\r\n            phone,\r\n            permanentAddress,\r\n            false\r\n        );\r\n        docCount++;\r\n    }\r\n\r\n    function getDocCount() public view returns (uint256) {\r\n        return docCount;\r\n    }\r\n\r\n    function getDocument(uint256 id)\r\n        public\r\n        view\r\n        returns (\r\n            string memory user_did,\r\n            string memory name,\r\n            string memory dob,\r\n            string memory email,\r\n            string memory phone,\r\n            string memory permanentAddress,\r\n            bool status\r\n        )\r\n    {\r\n        Document memory doc = documents[id];\r\n        return (\r\n            doc.user_did,\r\n            doc.name,\r\n            doc.dob,\r\n            doc.email,\r\n            doc.phone,\r\n            doc.permanentAddress,\r\n            doc.status\r\n        );\r\n    }\r\n\r\n    function verifyDocument(\r\n        uint256 id,\r\n        string memory user_did,\r\n        string memory name,\r\n        string memory dob,\r\n        string memory email,\r\n        string memory phone,\r\n        string memory permanentAddress\r\n    ) public {\r\n        require(id < docCount, \"Invalid document ID\");\r\n        Document storage doc = documents[id];\r\n        \r\n        doc.user_did = user_did;\r\n        doc.name = name;\r\n        doc.dob = dob;\r\n        doc.email = email;\r\n        doc.phone = phone;\r\n        doc.permanentAddress = permanentAddress;\r\n        doc.status = true;\r\n    }\r\n\r\n    function totalDocuments() public view returns (uint256) {\r\n        return docCount;\r\n    }\r\n\r\n    function showAllDocs(string memory user_did)\r\n        public\r\n        view\r\n        returns (uint256[] memory)\r\n    {\r\n        uint256[] memory indices = new uint256[](docCount);\r\n        uint256 count = 0;\r\n        for (uint256 i = 0; i < docCount; i++) {\r\n            if (\r\n                keccak256(abi.encodePacked((documents[i].user_did))) ==\r\n                keccak256(abi.encodePacked((user_did)))\r\n            ) {\r\n                indices[count] = i;\r\n                count++;\r\n            }\r\n        }\r\n        uint256[] memory result = new uint256[](count);\r\n        for (uint256 i = 0; i < count; i++) {\r\n            result[i] = indices[i];\r\n        }\r\n        return result;\r\n    }\r\n}",
  "sourcePath": "D:\\Programming\\node\\truffle\\contracts\\SSI.sol",
  "compiler": {
    "name": "solc",
    "version": "0.8.11+commit.d7f03943.Emscripten.clang"
  },
  "schemaVersion": "3.4.4",
  "updatedAt": "2024-03-02T11:58:34.762Z",
  "networkType": "ethereum",
  "devdoc": {
    "kind": "dev",
    "methods": {},
    "version": 1
  },
  "userdoc": {
    "kind": "user",
    "methods": {},
    "version": 1
  }
}