{
  "contractName": "SSI",
  "abi": [
    {
      "inputs": [],
      "name": "docCount",
      "outputs": [
        {
          "internalType": "uint256",
          "name": "",
          "type": "uint256"
        }
      ],
      "stateMutability": "view",
      "type": "function"
    },
    {
      "inputs": [
        {
          "internalType": "uint256",
          "name": "",
          "type": "uint256"
        }
      ],
      "name": "documents",
      "outputs": [
        {
          "internalType": "uint256",
          "name": "id",
          "type": "uint256"
        },
        {
          "internalType": "string",
          "name": "user_did",
          "type": "string"
        },
        {
          "internalType": "string",
          "name": "did",
          "type": "string"
        },
        {
          "internalType": "string",
          "name": "name",
          "type": "string"
        },
        {
          "internalType": "string",
          "name": "fathersName",
          "type": "string"
        },
        {
          "internalType": "string",
          "name": "email",
          "type": "string"
        },
        {
          "internalType": "string",
          "name": "phone",
          "type": "string"
        },
        {
          "internalType": "string",
          "name": "permanentAddress",
          "type": "string"
        },
        {
          "internalType": "string",
          "name": "signature",
          "type": "string"
        },
        {
          "internalType": "bool",
          "name": "status",
          "type": "bool"
        }
      ],
      "stateMutability": "view",
      "type": "function"
    },
    {
      "inputs": [
        {
          "internalType": "string",
          "name": "user_did",
          "type": "string"
        },
        {
          "internalType": "string",
          "name": "did",
          "type": "string"
        },
        {
          "internalType": "string",
          "name": "name",
          "type": "string"
        },
        {
          "internalType": "string",
          "name": "fathersName",
          "type": "string"
        },
        {
          "internalType": "string",
          "name": "email",
          "type": "string"
        },
        {
          "internalType": "string",
          "name": "phone",
          "type": "string"
        },
        {
          "internalType": "string",
          "name": "permanentAddress",
          "type": "string"
        }
      ],
      "name": "addDocument",
      "outputs": [],
      "stateMutability": "nonpayable",
      "type": "function"
    },
    {
      "inputs": [],
      "name": "getDocCount",
      "outputs": [
        {
          "internalType": "uint256",
          "name": "",
          "type": "uint256"
        }
      ],
      "stateMutability": "view",
      "type": "function"
    },
    {
      "inputs": [
        {
          "internalType": "uint256",
          "name": "id",
          "type": "uint256"
        }
      ],
      "name": "getDocument",
      "outputs": [
        {
          "internalType": "string",
          "name": "user_did",
          "type": "string"
        },
        {
          "internalType": "string",
          "name": "did",
          "type": "string"
        },
        {
          "internalType": "string",
          "name": "name",
          "type": "string"
        },
        {
          "internalType": "string",
          "name": "fathersName",
          "type": "string"
        },
        {
          "internalType": "string",
          "name": "email",
          "type": "string"
        },
        {
          "internalType": "string",
          "name": "phone",
          "type": "string"
        },
        {
          "internalType": "string",
          "name": "permanentAddress",
          "type": "string"
        },
        {
          "internalType": "bool",
          "name": "status",
          "type": "bool"
        }
      ],
      "stateMutability": "view",
      "type": "function"
    },
    {
      "inputs": [
        {
          "internalType": "uint256",
          "name": "id",
          "type": "uint256"
        },
        {
          "internalType": "string",
          "name": "user_did",
          "type": "string"
        },
        {
          "internalType": "string",
          "name": "did",
          "type": "string"
        },
        {
          "internalType": "string",
          "name": "name",
          "type": "string"
        },
        {
          "internalType": "string",
          "name": "fathersName",
          "type": "string"
        },
        {
          "internalType": "string",
          "name": "email",
          "type": "string"
        },
        {
          "internalType": "string",
          "name": "phone",
          "type": "string"
        },
        {
          "internalType": "string",
          "name": "permanentAddress",
          "type": "string"
        },
        {
          "internalType": "bytes",
          "name": "signature",
          "type": "bytes"
        }
      ],
      "name": "verifyDocument",
      "outputs": [],
      "stateMutability": "nonpayable",
      "type": "function"
    },
    {
      "inputs": [],
      "name": "totalDocuments",
      "outputs": [
        {
          "internalType": "uint256",
          "name": "",
          "type": "uint256"
        }
      ],
      "stateMutability": "view",
      "type": "function"
    },
    {
      "inputs": [
        {
          "internalType": "string",
          "name": "user_did",
          "type": "string"
        }
      ],
      "name": "showAllDocs",
      "outputs": [
        {
          "internalType": "uint256[]",
          "name": "",
          "type": "uint256[]"
        }
      ],
      "stateMutability": "view",
      "type": "function"
    }
  ],
  "bytecode": "0x60806040526000805534801561001457600080fd5b506120d1806100246000396000f3fe608060405234801561001057600080fd5b50600436106100885760003560e01c806363704e931161005b57806363704e931461011c578063c14748881461013a578063c2ed2b051461016a578063f681d6dd146101a357610088565b80633f9b250a1461008d5780634c4dc6e0146100c4578063553181ec146100e257806359a2a63014610100575b600080fd5b6100a760048036038101906100a29190611332565b6101bf565b6040516100bb989796959493929190611413565b60405180910390f35b6100cc6106e8565b6040516100d991906114d1565b60405180910390f35b6100ea6106ee565b6040516100f791906114d1565b60405180910390f35b61011a60048036038101906101159190611621565b6106f7565b005b61012461089c565b60405161013191906114d1565b60405180910390f35b610154600480360381019061014f9190611787565b6108a5565b604051610161919061188e565b60405180910390f35b610184600480360381019061017f9190611332565b610a60565b60405161019a9a999897969594939291906118b0565b60405180910390f35b6101bd60048036038101906101b89190611a25565b610f01565b005b6060806060806060806060600080600160008b8152602001908152602001600020604051806101400160405290816000820154815260200160018201805461020690611bfe565b80601f016020809104026020016040519081016040528092919081815260200182805461023290611bfe565b801561027f5780601f106102545761010080835404028352916020019161027f565b820191906000526020600020905b81548152906001019060200180831161026257829003601f168201915b5050505050815260200160028201805461029890611bfe565b80601f01602080910402602001604051908101604052809291908181526020018280546102c490611bfe565b80156103115780601f106102e657610100808354040283529160200191610311565b820191906000526020600020905b8154815290600101906020018083116102f457829003601f168201915b5050505050815260200160038201805461032a90611bfe565b80601f016020809104026020016040519081016040528092919081815260200182805461035690611bfe565b80156103a35780601f10610378576101008083540402835291602001916103a3565b820191906000526020600020905b81548152906001019060200180831161038657829003601f168201915b505050505081526020016004820180546103bc90611bfe565b80601f01602080910402602001604051908101604052809291908181526020018280546103e890611bfe565b80156104355780601f1061040a57610100808354040283529160200191610435565b820191906000526020600020905b81548152906001019060200180831161041857829003601f168201915b5050505050815260200160058201805461044e90611bfe565b80601f016020809104026020016040519081016040528092919081815260200182805461047a90611bfe565b80156104c75780601f1061049c576101008083540402835291602001916104c7565b820191906000526020600020905b8154815290600101906020018083116104aa57829003601f168201915b505050505081526020016006820180546104e090611bfe565b80601f016020809104026020016040519081016040528092919081815260200182805461050c90611bfe565b80156105595780601f1061052e57610100808354040283529160200191610559565b820191906000526020600020905b81548152906001019060200180831161053c57829003601f168201915b5050505050815260200160078201805461057290611bfe565b80601f016020809104026020016040519081016040528092919081815260200182805461059e90611bfe565b80156105eb5780601f106105c0576101008083540402835291602001916105eb565b820191906000526020600020905b8154815290600101906020018083116105ce57829003601f168201915b5050505050815260200160088201805461060490611bfe565b80601f016020809104026020016040519081016040528092919081815260200182805461063090611bfe565b801561067d5780601f106106525761010080835404028352916020019161067d565b820191906000526020600020905b81548152906001019060200180831161066057829003601f168201915b505050505081526020016009820160009054906101000a900460ff161515151581525050905080602001518160400151826060015183608001518460a001518560c001518660e001518761012001519850985098509850985098509850985050919395975091939597565b60005481565b60008054905090565b604051806101400160405280600054815260200188815260200187815260200186815260200185815260200184815260200183815260200182815260200160405180602001604052806000815250815260200160001515815250600160008054815260200190815260200160002060008201518160000155602082015181600101908051906020019061078b929190611245565b5060408201518160020190805190602001906107a8929190611245565b5060608201518160030190805190602001906107c5929190611245565b5060808201518160040190805190602001906107e2929190611245565b5060a08201518160050190805190602001906107ff929190611245565b5060c082015181600601908051906020019061081c929190611245565b5060e0820151816007019080519060200190610839929190611245565b50610100820151816008019080519060200190610857929190611245565b506101208201518160090160006101000a81548160ff02191690831515021790555090505060008081548092919061088e90611c5f565b919050555050505050505050565b60008054905090565b60606000805467ffffffffffffffff8111156108c4576108c36114f6565b5b6040519080825280602002602001820160405280156108f25781602001602082028036833780820191505090505b5090506000805b6000548110156109ae57846040516020016109149190611ce4565b60405160208183030381529060405280519060200120600160008381526020019081526020016000206001016040516020016109509190611d8f565b60405160208183030381529060405280519060200120141561099b57808383815181106109805761097f611da6565b5b602002602001018181525050818061099790611c5f565b9250505b80806109a690611c5f565b9150506108f9565b5060008167ffffffffffffffff8111156109cb576109ca6114f6565b5b6040519080825280602002602001820160405280156109f95781602001602082028036833780820191505090505b50905060005b82811015610a5457838181518110610a1a57610a19611da6565b5b6020026020010151828281518110610a3557610a34611da6565b5b6020026020010181815250508080610a4c90611c5f565b9150506109ff565b50809350505050919050565b6001602052806000526040600020600091509050806000015490806001018054610a8990611bfe565b80601f0160208091040260200160405190810160405280929190818152602001828054610ab590611bfe565b8015610b025780601f10610ad757610100808354040283529160200191610b02565b820191906000526020600020905b815481529060010190602001808311610ae557829003601f168201915b505050505090806002018054610b1790611bfe565b80601f0160208091040260200160405190810160405280929190818152602001828054610b4390611bfe565b8015610b905780601f10610b6557610100808354040283529160200191610b90565b820191906000526020600020905b815481529060010190602001808311610b7357829003601f168201915b505050505090806003018054610ba590611bfe565b80601f0160208091040260200160405190810160405280929190818152602001828054610bd190611bfe565b8015610c1e5780601f10610bf357610100808354040283529160200191610c1e565b820191906000526020600020905b815481529060010190602001808311610c0157829003601f168201915b505050505090806004018054610c3390611bfe565b80601f0160208091040260200160405190810160405280929190818152602001828054610c5f90611bfe565b8015610cac5780601f10610c8157610100808354040283529160200191610cac565b820191906000526020600020905b815481529060010190602001808311610c8f57829003601f168201915b505050505090806005018054610cc190611bfe565b80601f0160208091040260200160405190810160405280929190818152602001828054610ced90611bfe565b8015610d3a5780601f10610d0f57610100808354040283529160200191610d3a565b820191906000526020600020905b815481529060010190602001808311610d1d57829003601f168201915b505050505090806006018054610d4f90611bfe565b80601f0160208091040260200160405190810160405280929190818152602001828054610d7b90611bfe565b8015610dc85780601f10610d9d57610100808354040283529160200191610dc8565b820191906000526020600020905b815481529060010190602001808311610dab57829003601f168201915b505050505090806007018054610ddd90611bfe565b80601f0160208091040260200160405190810160405280929190818152602001828054610e0990611bfe565b8015610e565780601f10610e2b57610100808354040283529160200191610e56565b820191906000526020600020905b815481529060010190602001808311610e3957829003601f168201915b505050505090806008018054610e6b90611bfe565b80601f0160208091040260200160405190810160405280929190818152602001828054610e9790611bfe565b8015610ee45780601f10610eb957610100808354040283529160200191610ee4565b820191906000526020600020905b815481529060010190602001808311610ec757829003601f168201915b5050505050908060090160009054906101000a900460ff1690508a565b6000548910610f45576040517f08c379a0000000000000000000000000000000000000000000000000000000008152600401610f3c90611e21565b60405180910390fd5b6000600160008b81526020019081526020016000209050600089898989898989604051602001610f7b9796959493929190611e41565b6040516020818303038152906040528051906020012090506000610f9f828561110a565b9050610faa8b611237565b73ffffffffffffffffffffffffffffffffffffffff168173ffffffffffffffffffffffffffffffffffffffff1614611017576040517f08c379a000000000000000000000000000000000000000000000000000000000815260040161100e90611ef2565b60405180910390fd5b8a83600101908051906020019061102f929190611245565b5089836002019080519060200190611048929190611245565b5088836003019080519060200190611061929190611245565b508783600401908051906020019061107a929190611245565b5086836005019080519060200190611093929190611245565b50858360060190805190602001906110ac929190611245565b50848360070190805190602001906110c5929190611245565b50838360080190805190602001906110de929190611245565b5060018360090160006101000a81548160ff021916908315150217905550505050505050505050505050565b60006041825114611150576040517f08c379a000000000000000000000000000000000000000000000000000000000815260040161114790611f5e565b60405180910390fd5b60008060006020850151925060408501519150606085015160001a9050601b8160ff16101561118957601b816111869190611f8b565b90505b601b8160ff16148061119e5750601c8160ff16145b6111dd576040517f08c379a00000000000000000000000000000000000000000000000000000000081526004016111d49061200e565b60405180910390fd5b600186828585604051600081526020016040526040516112009493929190612056565b6020604051602081039080840390855afa158015611222573d6000803e3d6000fd5b50505060206040510351935050505092915050565b600060148201519050919050565b82805461125190611bfe565b90600052602060002090601f01602090048101928261127357600085556112ba565b82601f1061128c57805160ff19168380011785556112ba565b828001600101855582156112ba579182015b828111156112b957825182559160200191906001019061129e565b5b5090506112c791906112cb565b5090565b5b808211156112e45760008160009055506001016112cc565b5090565b6000604051905090565b600080fd5b600080fd5b6000819050919050565b61130f816112fc565b811461131a57600080fd5b50565b60008135905061132c81611306565b92915050565b600060208284031215611348576113476112f2565b5b60006113568482850161131d565b91505092915050565b600081519050919050565b600082825260208201905092915050565b60005b8381101561139957808201518184015260208101905061137e565b838111156113a8576000848401525b50505050565b6000601f19601f8301169050919050565b60006113ca8261135f565b6113d4818561136a565b93506113e481856020860161137b565b6113ed816113ae565b840191505092915050565b60008115159050919050565b61140d816113f8565b82525050565b600061010082019050818103600083015261142e818b6113bf565b90508181036020830152611442818a6113bf565b9050818103604083015261145681896113bf565b9050818103606083015261146a81886113bf565b9050818103608083015261147e81876113bf565b905081810360a083015261149281866113bf565b905081810360c08301526114a681856113bf565b90506114b560e0830184611404565b9998505050505050505050565b6114cb816112fc565b82525050565b60006020820190506114e660008301846114c2565b92915050565b600080fd5b600080fd5b7f4e487b7100000000000000000000000000000000000000000000000000000000600052604160045260246000fd5b61152e826113ae565b810181811067ffffffffffffffff8211171561154d5761154c6114f6565b5b80604052505050565b60006115606112e8565b905061156c8282611525565b919050565b600067ffffffffffffffff82111561158c5761158b6114f6565b5b611595826113ae565b9050602081019050919050565b82818337600083830152505050565b60006115c46115bf84611571565b611556565b9050828152602081018484840111156115e0576115df6114f1565b5b6115eb8482856115a2565b509392505050565b600082601f830112611608576116076114ec565b5b81356116188482602086016115b1565b91505092915050565b600080600080600080600060e0888a0312156116405761163f6112f2565b5b600088013567ffffffffffffffff81111561165e5761165d6112f7565b5b61166a8a828b016115f3565b975050602088013567ffffffffffffffff81111561168b5761168a6112f7565b5b6116978a828b016115f3565b965050604088013567ffffffffffffffff8111156116b8576116b76112f7565b5b6116c48a828b016115f3565b955050606088013567ffffffffffffffff8111156116e5576116e46112f7565b5b6116f18a828b016115f3565b945050608088013567ffffffffffffffff811115611712576117116112f7565b5b61171e8a828b016115f3565b93505060a088013567ffffffffffffffff81111561173f5761173e6112f7565b5b61174b8a828b016115f3565b92505060c088013567ffffffffffffffff81111561176c5761176b6112f7565b5b6117788a828b016115f3565b91505092959891949750929550565b60006020828403121561179d5761179c6112f2565b5b600082013567ffffffffffffffff8111156117bb576117ba6112f7565b5b6117c7848285016115f3565b91505092915050565b600081519050919050565b600082825260208201905092915050565b6000819050602082019050919050565b611805816112fc565b82525050565b600061181783836117fc565b60208301905092915050565b6000602082019050919050565b600061183b826117d0565b61184581856117db565b9350611850836117ec565b8060005b83811015611881578151611868888261180b565b975061187383611823565b925050600181019050611854565b5085935050505092915050565b600060208201905081810360008301526118a88184611830565b905092915050565b6000610140820190506118c6600083018d6114c2565b81810360208301526118d8818c6113bf565b905081810360408301526118ec818b6113bf565b90508181036060830152611900818a6113bf565b9050818103608083015261191481896113bf565b905081810360a083015261192881886113bf565b905081810360c083015261193c81876113bf565b905081810360e083015261195081866113bf565b905081810361010083015261196581856113bf565b9050611975610120830184611404565b9b9a5050505050505050505050565b600067ffffffffffffffff82111561199f5761199e6114f6565b5b6119a8826113ae565b9050602081019050919050565b60006119c86119c384611984565b611556565b9050828152602081018484840111156119e4576119e36114f1565b5b6119ef8482856115a2565b509392505050565b600082601f830112611a0c57611a0b6114ec565b5b8135611a1c8482602086016119b5565b91505092915050565b60008060008060008060008060006101208a8c031215611a4857611a476112f2565b5b6000611a568c828d0161131d565b99505060208a013567ffffffffffffffff811115611a7757611a766112f7565b5b611a838c828d016115f3565b98505060408a013567ffffffffffffffff811115611aa457611aa36112f7565b5b611ab08c828d016115f3565b97505060608a013567ffffffffffffffff811115611ad157611ad06112f7565b5b611add8c828d016115f3565b96505060808a013567ffffffffffffffff811115611afe57611afd6112f7565b5b611b0a8c828d016115f3565b95505060a08a013567ffffffffffffffff811115611b2b57611b2a6112f7565b5b611b378c828d016115f3565b94505060c08a013567ffffffffffffffff811115611b5857611b576112f7565b5b611b648c828d016115f3565b93505060e08a013567ffffffffffffffff811115611b8557611b846112f7565b5b611b918c828d016115f3565b9250506101008a013567ffffffffffffffff811115611bb357611bb26112f7565b5b611bbf8c828d016119f7565b9150509295985092959850929598565b7f4e487b7100000000000000000000000000000000000000000000000000000000600052602260045260246000fd5b60006002820490506001821680611c1657607f821691505b60208210811415611c2a57611c29611bcf565b5b50919050565b7f4e487b7100000000000000000000000000000000000000000000000000000000600052601160045260246000fd5b6000611c6a826112fc565b91507fffffffffffffffffffffffffffffffffffffffffffffffffffffffffffffffff821415611c9d57611c9c611c30565b5b600182019050919050565b600081905092915050565b6000611cbe8261135f565b611cc88185611ca8565b9350611cd881856020860161137b565b80840191505092915050565b6000611cf08284611cb3565b915081905092915050565b60008190508160005260206000209050919050565b60008154611d1d81611bfe565b611d278186611ca8565b94506001821660008114611d425760018114611d5357611d86565b60ff19831686528186019350611d86565b611d5c85611cfb565b60005b83811015611d7e57815481890152600182019150602081019050611d5f565b838801955050505b50505092915050565b6000611d9b8284611d10565b915081905092915050565b7f4e487b7100000000000000000000000000000000000000000000000000000000600052603260045260246000fd5b7f496e76616c696420646f63756d656e7420494400000000000000000000000000600082015250565b6000611e0b60138361136a565b9150611e1682611dd5565b602082019050919050565b60006020820190508181036000830152611e3a81611dfe565b9050919050565b6000611e4d828a611cb3565b9150611e598289611cb3565b9150611e658288611cb3565b9150611e718287611cb3565b9150611e7d8286611cb3565b9150611e898285611cb3565b9150611e958284611cb3565b915081905098975050505050505050565b7f5369676e617475726520766572696669636174696f6e206661696c6564000000600082015250565b6000611edc601d8361136a565b9150611ee782611ea6565b602082019050919050565b60006020820190508181036000830152611f0b81611ecf565b9050919050565b7f496e76616c6964207369676e6174757265206c656e6774680000000000000000600082015250565b6000611f4860188361136a565b9150611f5382611f12565b602082019050919050565b60006020820190508181036000830152611f7781611f3b565b9050919050565b600060ff82169050919050565b6000611f9682611f7e565b9150611fa183611f7e565b92508260ff03821115611fb757611fb6611c30565b5b828201905092915050565b7f496e76616c6964207369676e6174757265207265636f76657279206964000000600082015250565b6000611ff8601d8361136a565b915061200382611fc2565b602082019050919050565b6000602082019050818103600083015261202781611feb565b9050919050565b6000819050919050565b6120418161202e565b82525050565b61205081611f7e565b82525050565b600060808201905061206b6000830187612038565b6120786020830186612047565b6120856040830185612038565b6120926060830184612038565b9594505050505056fea2646970667358221220f1765975be222863c9965531fe6c9a289791b77743062941c7f658ca18ac9f4064736f6c634300080b0033",
  "immutableReferences": {},
  "source": "// SPDX-License-Identifier: MIT\r\npragma solidity ^0.8.0;\r\n\r\ncontract SSI {\r\n    uint256 public docCount = 0;\r\n\r\n    struct Document {\r\n        uint256 id;\r\n        string user_did;\r\n        string did;\r\n        string name;\r\n        string fathersName;\r\n        string email;\r\n        string phone;\r\n        string permanentAddress;\r\n        string signature;\r\n        bool status;\r\n    }\r\n\r\n    mapping(uint256 => Document) public documents;\r\n\r\n    function addDocument(\r\n        string memory user_did,\r\n        string memory did,\r\n        string memory name,\r\n        string memory fathersName,\r\n        string memory email,\r\n        string memory phone,\r\n        string memory permanentAddress\r\n    ) public {\r\n        documents[docCount] = Document(\r\n            docCount,\r\n            user_did,\r\n            did,\r\n            name,\r\n            fathersName,\r\n            email,\r\n            phone,\r\n            permanentAddress,\r\n            \"\",\r\n            false\r\n        );\r\n        docCount++;\r\n    }\r\n\r\n    function getDocCount() public view returns (uint256) {\r\n        return docCount;\r\n    }\r\n\r\n    function getDocument(uint256 id)\r\n        public\r\n        view\r\n        returns (\r\n            string memory user_did,\r\n            string memory did,\r\n            string memory name,\r\n            string memory fathersName,\r\n            string memory email,\r\n            string memory phone,\r\n            string memory permanentAddress,\r\n            bool status\r\n        )\r\n    {\r\n        Document memory doc = documents[id];\r\n        return (\r\n            doc.user_did,\r\n            doc.did,\r\n            doc.name,\r\n            doc.fathersName,\r\n            doc.email,\r\n            doc.phone,\r\n            doc.permanentAddress,\r\n            doc.status\r\n        );\r\n    }\r\n\r\n    function verifyDocument(\r\n        uint256 id,\r\n        string memory user_did,\r\n        string memory did,\r\n        string memory name,\r\n        string memory fathersName,\r\n        string memory email,\r\n        string memory phone,\r\n        string memory permanentAddress,\r\n        bytes memory signature\r\n    ) public {\r\n        require(id < docCount, \"Invalid document ID\");\r\n        Document storage doc = documents[id];\r\n\r\n        bytes32 messageHash = keccak256(\r\n            abi.encodePacked(\r\n                user_did,\r\n                did,\r\n                name,\r\n                fathersName,\r\n                email,\r\n                phone,\r\n                permanentAddress\r\n            )\r\n        );\r\n\r\n        address recoveredAddress = recoverSigner(messageHash, signature);\r\n\r\n        require(\r\n            recoveredAddress == bytesToAddress(bytes(user_did)),\r\n            \"Signature verification failed\"\r\n        );\r\n\r\n        doc.user_did = user_did;\r\n        doc.did = did;\r\n        doc.name = name;\r\n        doc.fathersName = fathersName;\r\n        doc.email = email;\r\n        doc.phone = phone;\r\n        doc.permanentAddress = permanentAddress;\r\n        doc.signature = string(signature);\r\n        doc.status = true;\r\n    }\r\n\r\n    function totalDocuments() public view returns (uint256) {\r\n        return docCount;\r\n    }\r\n\r\n    function showAllDocs(string memory user_did)\r\n        public\r\n        view\r\n        returns (uint256[] memory)\r\n    {\r\n        uint256[] memory indices = new uint256[](docCount);\r\n        uint256 count = 0;\r\n        for (uint256 i = 0; i < docCount; i++) {\r\n            if (\r\n                keccak256(abi.encodePacked((documents[i].user_did))) ==\r\n                keccak256(abi.encodePacked((user_did)))\r\n            ) {\r\n                indices[count] = i;\r\n                count++;\r\n            }\r\n        }\r\n        uint256[] memory result = new uint256[](count);\r\n        for (uint256 i = 0; i < count; i++) {\r\n            result[i] = indices[i];\r\n        }\r\n        return result;\r\n    }\r\n\r\n    function recoverSigner(bytes32 messageHash, bytes memory signature)\r\n        internal\r\n        pure\r\n        returns (address)\r\n    {\r\n        require(signature.length == 65, \"Invalid signature length\");\r\n\r\n        bytes32 r;\r\n        bytes32 s;\r\n        uint8 v;\r\n\r\n        assembly {\r\n            r := mload(add(signature, 32))\r\n            s := mload(add(signature, 64))\r\n            v := byte(0, mload(add(signature, 96)))\r\n        }\r\n\r\n        if (v < 27) {\r\n            v += 27;\r\n        }\r\n\r\n        require(v == 27 || v == 28, \"Invalid signature recovery id\");\r\n\r\n        return ecrecover(messageHash, v, r, s);\r\n    }\r\n\r\n    function bytesToAddress(bytes memory data)\r\n        internal\r\n        pure\r\n        returns (address addr)\r\n    {\r\n        assembly {\r\n            addr := mload(add(data, 20))\r\n        }\r\n    }\r\n}",
  "sourcePath": "D:\\Programming\\node\\truffle\\contracts\\SSI.sol",
  "compiler": {
    "name": "solc",
    "version": "0.8.11+commit.d7f03943.Emscripten.clang"
  },
  "schemaVersion": "3.4.4",
  "updatedAt": "2024-03-02T08:05:23.557Z",
  "devdoc": {
    "kind": "dev",
    "methods": {},
    "version": 1
  },
  "userdoc": {
    "kind": "user",
    "methods": {},
    "version": 1
  }
}