{
  "contractName": "VerifierSSI",
  "abi": [
    {
      "inputs": [],
      "name": "reqCount",
      "outputs": [
        {
          "internalType": "uint256",
          "name": "",
          "type": "uint256"
        }
      ],
      "stateMutability": "view",
      "type": "function",
      "constant": true
    },
    {
      "inputs": [
        {
          "internalType": "uint256",
          "name": "",
          "type": "uint256"
        }
      ],
      "name": "requests",
      "outputs": [
        {
          "internalType": "uint256",
          "name": "id",
          "type": "uint256"
        },
        {
          "internalType": "string",
          "name": "user_did",
          "type": "string"
        },
        {
          "internalType": "string",
          "name": "V_publicKey",
          "type": "string"
        },
        {
          "internalType": "string",
          "name": "comp_and_doc",
          "type": "string"
        },
        {
          "internalType": "string",
          "name": "encAddress",
          "type": "string"
        },
        {
          "internalType": "string",
          "name": "request_at",
          "type": "string"
        },
        {
          "internalType": "bool",
          "name": "removed",
          "type": "bool"
        },
        {
          "internalType": "bool",
          "name": "review",
          "type": "bool"
        },
        {
          "internalType": "bool",
          "name": "status",
          "type": "bool"
        }
      ],
      "stateMutability": "view",
      "type": "function",
      "constant": true
    },
    {
      "inputs": [
        {
          "internalType": "string",
          "name": "user_did",
          "type": "string"
        },
        {
          "internalType": "string",
          "name": "V_publicKey",
          "type": "string"
        },
        {
          "internalType": "string",
          "name": "comp_and_doc",
          "type": "string"
        },
        {
          "internalType": "string",
          "name": "request_at",
          "type": "string"
        }
      ],
      "name": "makeRequest",
      "outputs": [],
      "stateMutability": "nonpayable",
      "type": "function"
    },
    {
      "inputs": [
        {
          "internalType": "uint256",
          "name": "id",
          "type": "uint256"
        },
        {
          "internalType": "string",
          "name": "encAddress",
          "type": "string"
        }
      ],
      "name": "acceptedByUser",
      "outputs": [],
      "stateMutability": "nonpayable",
      "type": "function"
    },
    {
      "inputs": [
        {
          "internalType": "string",
          "name": "user_did",
          "type": "string"
        }
      ],
      "name": "showRequest",
      "outputs": [
        {
          "internalType": "uint256[]",
          "name": "",
          "type": "uint256[]"
        }
      ],
      "stateMutability": "view",
      "type": "function",
      "constant": true
    },
    {
      "inputs": [],
      "name": "showAllRequest",
      "outputs": [
        {
          "internalType": "uint256",
          "name": "",
          "type": "uint256"
        }
      ],
      "stateMutability": "view",
      "type": "function",
      "constant": true
    },
    {
      "inputs": [
        {
          "internalType": "uint256",
          "name": "id",
          "type": "uint256"
        }
      ],
      "name": "getIndividualRequest",
      "outputs": [
        {
          "internalType": "uint256",
          "name": "",
          "type": "uint256"
        },
        {
          "internalType": "string",
          "name": "",
          "type": "string"
        },
        {
          "internalType": "string",
          "name": "",
          "type": "string"
        },
        {
          "internalType": "string",
          "name": "",
          "type": "string"
        },
        {
          "internalType": "string",
          "name": "",
          "type": "string"
        },
        {
          "internalType": "string",
          "name": "",
          "type": "string"
        },
        {
          "internalType": "bool",
          "name": "",
          "type": "bool"
        },
        {
          "internalType": "bool",
          "name": "",
          "type": "bool"
        },
        {
          "internalType": "bool",
          "name": "",
          "type": "bool"
        }
      ],
      "stateMutability": "view",
      "type": "function",
      "constant": true
    },
    {
      "inputs": [
        {
          "internalType": "uint256",
          "name": "id",
          "type": "uint256"
        },
        {
          "internalType": "bool",
          "name": "review",
          "type": "bool"
        },
        {
          "internalType": "bool",
          "name": "status",
          "type": "bool"
        }
      ],
      "name": "verifyDocument",
      "outputs": [],
      "stateMutability": "nonpayable",
      "type": "function"
    },
    {
      "inputs": [
        {
          "internalType": "uint256",
          "name": "id",
          "type": "uint256"
        }
      ],
      "name": "removeRequest",
      "outputs": [],
      "stateMutability": "nonpayable",
      "type": "function"
    }
  ],
  "bytecode": "0x60806040526000805534801561001457600080fd5b50611845806100246000396000f3fe608060405234801561001057600080fd5b50600436106100935760003560e01c806366cbeaf11161006657806366cbeaf11461012657806381d12c58146101565780638ba819881461018e578063eee3d364146101aa578063f4f71a0f146101c657610093565b80631a638c68146100985780632354c23c146100d057806344786fc3146100ec57806365b6862414610108575b600080fd5b6100b260048036038101906100ad9190610f90565b6101e4565b6040516100c799989796959493929190611080565b60405180910390f35b6100ea60048036038101906100e5919061115c565b610603565b005b61010660048036038101906101019190610f90565b6106c3565b005b610110610766565b60405161011d91906111af565b60405180910390f35b610140600480360381019061013b91906112ff565b61076c565b60405161014d9190611406565b60405180910390f35b610170600480360381019061016b9190610f90565b610910565b60405161018599989796959493929190611080565b60405180910390f35b6101a860048036038101906101a39190611428565b610c3d565b005b6101c460048036038101906101bf91906114ff565b610ddd565b005b6101ce610e9a565b6040516101db91906111af565b60405180910390f35b600060608060608060606000806000808a11801561020457506000548a11155b610243576040517f08c379a000000000000000000000000000000000000000000000000000000000815260040161023a906115a7565b60405180910390fd5b60006001808c61025391906115f6565b815481106102645761026361162a565b5b9060005260206000209060070201604051806101200160405290816000820154815260200160018201805461029890611688565b80601f01602080910402602001604051908101604052809291908181526020018280546102c490611688565b80156103115780601f106102e657610100808354040283529160200191610311565b820191906000526020600020905b8154815290600101906020018083116102f457829003601f168201915b5050505050815260200160028201805461032a90611688565b80601f016020809104026020016040519081016040528092919081815260200182805461035690611688565b80156103a35780601f10610378576101008083540402835291602001916103a3565b820191906000526020600020905b81548152906001019060200180831161038657829003601f168201915b505050505081526020016003820180546103bc90611688565b80601f01602080910402602001604051908101604052809291908181526020018280546103e890611688565b80156104355780601f1061040a57610100808354040283529160200191610435565b820191906000526020600020905b81548152906001019060200180831161041857829003601f168201915b5050505050815260200160048201805461044e90611688565b80601f016020809104026020016040519081016040528092919081815260200182805461047a90611688565b80156104c75780601f1061049c576101008083540402835291602001916104c7565b820191906000526020600020905b8154815290600101906020018083116104aa57829003601f168201915b505050505081526020016005820180546104e090611688565b80601f016020809104026020016040519081016040528092919081815260200182805461050c90611688565b80156105595780601f1061052e57610100808354040283529160200191610559565b820191906000526020600020905b81548152906001019060200180831161053c57829003601f168201915b505050505081526020016006820160009054906101000a900460ff161515151581526020016006820160019054906101000a900460ff161515151581526020016006820160029054906101000a900460ff1615151515815250509050806000015181602001518260400151836060015184608001518560a001518660c001518760e00151886101000151995099509950995099509950995099509950509193959799909294969850565b60008311801561061557506000548311155b610654576040517f08c379a000000000000000000000000000000000000000000000000000000000815260040161064b906115a7565b60405180910390fd5b60006001808561066491906115f6565b815481106106755761067461162a565b5b90600052602060002090600702019050828160060160016101000a81548160ff021916908315150217905550818160060160026101000a81548160ff02191690831515021790555050505050565b6000811180156106d557506000548111155b610714576040517f08c379a000000000000000000000000000000000000000000000000000000000815260040161070b906115a7565b60405180910390fd5b60006001808361072491906115f6565b815481106107355761073461162a565b5b9060005260206000209060070201905060018160060160006101000a81548160ff0219169083151502179055505050565b60005481565b60606000805467ffffffffffffffff81111561078b5761078a6111d4565b5b6040519080825280602002602001820160405280156107b95781602001602082028036833780820191505090505b5090506000805b60005481101561085e578480519060200120600182815481106107e6576107e561162a565b5b90600052602060002090600702016001016040516108049190611759565b6040518091039020141561084b5760018161081f9190611770565b83838061082b906117c6565b94508151811061083e5761083d61162a565b5b6020026020010181815250505b8080610856906117c6565b9150506107c0565b5060008167ffffffffffffffff81111561087b5761087a6111d4565b5b6040519080825280602002602001820160405280156108a95781602001602082028036833780820191505090505b50905060005b82811015610904578381815181106108ca576108c961162a565b5b60200260200101518282815181106108e5576108e461162a565b5b60200260200101818152505080806108fc906117c6565b9150506108af565b50809350505050919050565b6001818154811061092057600080fd5b906000526020600020906007020160009150905080600001549080600101805461094990611688565b80601f016020809104026020016040519081016040528092919081815260200182805461097590611688565b80156109c25780601f10610997576101008083540402835291602001916109c2565b820191906000526020600020905b8154815290600101906020018083116109a557829003601f168201915b5050505050908060020180546109d790611688565b80601f0160208091040260200160405190810160405280929190818152602001828054610a0390611688565b8015610a505780601f10610a2557610100808354040283529160200191610a50565b820191906000526020600020905b815481529060010190602001808311610a3357829003601f168201915b505050505090806003018054610a6590611688565b80601f0160208091040260200160405190810160405280929190818152602001828054610a9190611688565b8015610ade5780601f10610ab357610100808354040283529160200191610ade565b820191906000526020600020905b815481529060010190602001808311610ac157829003601f168201915b505050505090806004018054610af390611688565b80601f0160208091040260200160405190810160405280929190818152602001828054610b1f90611688565b8015610b6c5780601f10610b4157610100808354040283529160200191610b6c565b820191906000526020600020905b815481529060010190602001808311610b4f57829003601f168201915b505050505090806005018054610b8190611688565b80601f0160208091040260200160405190810160405280929190818152602001828054610bad90611688565b8015610bfa5780601f10610bcf57610100808354040283529160200191610bfa565b820191906000526020600020905b815481529060010190602001808311610bdd57829003601f168201915b5050505050908060060160009054906101000a900460ff16908060060160019054906101000a900460ff16908060060160029054906101000a900460ff16905089565b600080815480929190610c4f906117c6565b919050555060016040518061012001604052806000548152602001868152602001858152602001848152602001604051806020016040528060008152508152602001838152602001600015158152602001600015158152602001600015158152509080600181540180825580915050600190039060005260206000209060070201600090919091909150600082015181600001556020820151816001019080519060200190610cff929190610ea3565b506040820151816002019080519060200190610d1c929190610ea3565b506060820151816003019080519060200190610d39929190610ea3565b506080820151816004019080519060200190610d56929190610ea3565b5060a0820151816005019080519060200190610d73929190610ea3565b5060c08201518160060160006101000a81548160ff02191690831515021790555060e08201518160060160016101000a81548160ff0219169083151502179055506101008201518160060160026101000a81548160ff021916908315150217905550505050505050565b600082118015610def57506000548211155b610e2e576040517f08c379a0000000000000000000000000000000000000000000000000000000008152600401610e25906115a7565b60405180910390fd5b600060018084610e3e91906115f6565b81548110610e4f57610e4e61162a565b5b9060005260206000209060070201905081816004019080519060200190610e77929190610ea3565b5060018160060160026101000a81548160ff021916908315150217905550505050565b60008054905090565b828054610eaf90611688565b90600052602060002090601f016020900481019282610ed15760008555610f18565b82601f10610eea57805160ff1916838001178555610f18565b82800160010185558215610f18579182015b82811115610f17578251825591602001919060010190610efc565b5b509050610f259190610f29565b5090565b5b80821115610f42576000816000905550600101610f2a565b5090565b6000604051905090565b600080fd5b600080fd5b6000819050919050565b610f6d81610f5a565b8114610f7857600080fd5b50565b600081359050610f8a81610f64565b92915050565b600060208284031215610fa657610fa5610f50565b5b6000610fb484828501610f7b565b91505092915050565b610fc681610f5a565b82525050565b600081519050919050565b600082825260208201905092915050565b60005b83811015611006578082015181840152602081019050610feb565b83811115611015576000848401525b50505050565b6000601f19601f8301169050919050565b600061103782610fcc565b6110418185610fd7565b9350611051818560208601610fe8565b61105a8161101b565b840191505092915050565b60008115159050919050565b61107a81611065565b82525050565b600061012082019050611096600083018c610fbd565b81810360208301526110a8818b61102c565b905081810360408301526110bc818a61102c565b905081810360608301526110d0818961102c565b905081810360808301526110e4818861102c565b905081810360a08301526110f8818761102c565b905061110760c0830186611071565b61111460e0830185611071565b611122610100830184611071565b9a9950505050505050505050565b61113981611065565b811461114457600080fd5b50565b60008135905061115681611130565b92915050565b60008060006060848603121561117557611174610f50565b5b600061118386828701610f7b565b935050602061119486828701611147565b92505060406111a586828701611147565b9150509250925092565b60006020820190506111c46000830184610fbd565b92915050565b600080fd5b600080fd5b7f4e487b7100000000000000000000000000000000000000000000000000000000600052604160045260246000fd5b61120c8261101b565b810181811067ffffffffffffffff8211171561122b5761122a6111d4565b5b80604052505050565b600061123e610f46565b905061124a8282611203565b919050565b600067ffffffffffffffff82111561126a576112696111d4565b5b6112738261101b565b9050602081019050919050565b82818337600083830152505050565b60006112a261129d8461124f565b611234565b9050828152602081018484840111156112be576112bd6111cf565b5b6112c9848285611280565b509392505050565b600082601f8301126112e6576112e56111ca565b5b81356112f684826020860161128f565b91505092915050565b60006020828403121561131557611314610f50565b5b600082013567ffffffffffffffff81111561133357611332610f55565b5b61133f848285016112d1565b91505092915050565b600081519050919050565b600082825260208201905092915050565b6000819050602082019050919050565b61137d81610f5a565b82525050565b600061138f8383611374565b60208301905092915050565b6000602082019050919050565b60006113b382611348565b6113bd8185611353565b93506113c883611364565b8060005b838110156113f95781516113e08882611383565b97506113eb8361139b565b9250506001810190506113cc565b5085935050505092915050565b6000602082019050818103600083015261142081846113a8565b905092915050565b6000806000806080858703121561144257611441610f50565b5b600085013567ffffffffffffffff8111156114605761145f610f55565b5b61146c878288016112d1565b945050602085013567ffffffffffffffff81111561148d5761148c610f55565b5b611499878288016112d1565b935050604085013567ffffffffffffffff8111156114ba576114b9610f55565b5b6114c6878288016112d1565b925050606085013567ffffffffffffffff8111156114e7576114e6610f55565b5b6114f3878288016112d1565b91505092959194509250565b6000806040838503121561151657611515610f50565b5b600061152485828601610f7b565b925050602083013567ffffffffffffffff81111561154557611544610f55565b5b611551858286016112d1565b9150509250929050565b7f496e76616c696420726571756573742049440000000000000000000000000000600082015250565b6000611591601283610fd7565b915061159c8261155b565b602082019050919050565b600060208201905081810360008301526115c081611584565b9050919050565b7f4e487b7100000000000000000000000000000000000000000000000000000000600052601160045260246000fd5b600061160182610f5a565b915061160c83610f5a565b92508282101561161f5761161e6115c7565b5b828203905092915050565b7f4e487b7100000000000000000000000000000000000000000000000000000000600052603260045260246000fd5b7f4e487b7100000000000000000000000000000000000000000000000000000000600052602260045260246000fd5b600060028204905060018216806116a057607f821691505b602082108114156116b4576116b3611659565b5b50919050565b600081905092915050565b60008190508160005260206000209050919050565b600081546116e781611688565b6116f181866116ba565b9450600182166000811461170c576001811461171d57611750565b60ff19831686528186019350611750565b611726856116c5565b60005b8381101561174857815481890152600182019150602081019050611729565b838801955050505b50505092915050565b600061176582846116da565b915081905092915050565b600061177b82610f5a565b915061178683610f5a565b9250827fffffffffffffffffffffffffffffffffffffffffffffffffffffffffffffffff038211156117bb576117ba6115c7565b5b828201905092915050565b60006117d182610f5a565b91507fffffffffffffffffffffffffffffffffffffffffffffffffffffffffffffffff821415611804576118036115c7565b5b60018201905091905056fea2646970667358221220e74bda1d347d95533f34441c278f7f225c6882f6f3da0796f8154893b67f70a764736f6c634300080b0033",
  "immutableReferences": {},
  "source": "// SPDX-License-Identifier: MIT\r\npragma solidity ^0.8.0;\r\n\r\ncontract VerifierSSI {\r\n    uint256 public reqCount = 0;\r\n    Request[] public requests;\r\n\r\n    struct Request {\r\n        uint256 id;\r\n        string user_did;\r\n        string V_publicKey;\r\n        string comp_and_doc;\r\n        string encAddress;\r\n        string request_at;\r\n        bool removed;\r\n        bool review;\r\n        bool status;\r\n    }\r\n\r\n    function makeRequest(\r\n        string memory user_did,\r\n        string memory V_publicKey,\r\n        string memory comp_and_doc,\r\n        string memory request_at\r\n    ) public {\r\n        reqCount++;\r\n        requests.push(Request(reqCount, user_did, V_publicKey, comp_and_doc, \"\", request_at, false, false, false));\r\n    }\r\n\r\n    function acceptedByUser(uint256 id, string memory encAddress) public {\r\n        require(id > 0 && id <= reqCount, \"Invalid request ID\");\r\n        Request storage req = requests[id - 1];\r\n        req.encAddress = encAddress;\r\n        req.status = true;\r\n    }\r\n\r\n    function showRequest(string memory user_did) public view returns (uint256[] memory) {\r\n        uint256[] memory indices = new uint256[](reqCount);\r\n        uint256 counter = 0;\r\n        for (uint256 i = 0; i < reqCount; i++) {\r\n            if (keccak256(bytes(requests[i].user_did)) == keccak256(bytes(user_did))) {\r\n                indices[counter++] = i + 1;\r\n            }\r\n        }\r\n        uint256[] memory result = new uint256[](counter);\r\n        for (uint256 i = 0; i < counter; i++) {\r\n            result[i] = indices[i];\r\n        }\r\n        return result;\r\n    }\r\n\r\n    function showAllRequest() public view returns (uint256) {\r\n        return reqCount;\r\n    }\r\n\r\n    function getIndividualRequest(uint256 id) public view returns (uint256, string memory, string memory, string memory, string memory, string memory, bool, bool, bool) {\r\n        require(id > 0 && id <= reqCount, \"Invalid request ID\");\r\n        Request memory req = requests[id - 1];\r\n        return (req.id, req.user_did, req.V_publicKey, req.comp_and_doc, req.encAddress, req.request_at, req.removed, req.review, req.status);\r\n    }\r\n\r\n    function verifyDocument(uint256 id, bool review, bool status) public {\r\n        require(id > 0 && id <= reqCount, \"Invalid request ID\");\r\n        Request storage req = requests[id - 1];\r\n        req.review = review;\r\n        req.status = status;\r\n    }\r\n\r\n    function removeRequest(uint256 id) public {\r\n        require(id > 0 && id <= reqCount, \"Invalid request ID\");\r\n        Request storage req = requests[id - 1];\r\n        req.removed = true;\r\n    }\r\n}",
  "sourcePath": "D:\\Programming\\node\\truffle\\contracts\\VerifierSSI.sol",
  "compiler": {
    "name": "solc",
    "version": "0.8.11+commit.d7f03943.Emscripten.clang"
  },
  "schemaVersion": "3.4.4",
  "updatedAt": "2024-03-02T11:58:35.143Z",
  "networkType": "ethereum",
  "devdoc": {
    "kind": "dev",
    "methods": {},
    "version": 1
  },
  "userdoc": {
    "kind": "user",
    "methods": {},
    "version": 1
  }
}